S00D00004C616231422E7372656395
S11300000C9434000C9449000C9449000C9449005D
S11300100C9449000C9449000C9449000C94490038
S11300200C9449000C9449000C9449000C94490028
S11300300C9449000C9449000C9449000C94490018
S11300400C9449000C9449000C9449000C94490008
S11300500C9449000C9449000C9449000C944900F8
S11300600C9449000C94490011241FBECFEFD8E032
S1130070DEBFCDBF11E0A0E0B1E0EEEBF2E002C0E4
S113008005900D92A033B107D9F70E9471000C942A
S11300905D010C94000088E18093C10086E08093A8
S11300A0C20087E690E09093C5008093C40083E289
S11300B084BD8CE085BD87EA87BD18BC80E28AB91F
S11300C00895E0ECF0E0908195FFFDCF8093C600A9
S11300D00895E0ECF0E080818823ECF78091C6007D
S11300E00895CF93DF93CDB7DEB7E0970FB6F894BA
S11300F0DEBF0FBECDBF88E1E0E0F1E0DE01119686
S113010001900D928A95E1F788E1E8E1F1E0DE01E2
S1130110599601900D928A95E1F70E944B00812C2B
S1130120912CCE0101966C016894222427F8312C7D
S11301300F2EF1E86F2E712CF02D0F2EF6E84F2EB6
S1130140512CF02D7E0199E1E90EF11C16C00E949C
S1130150690090ED980F9A3080F49401220F331FB8
S1130160880C991C880C991C880C991C820E931E6F
S1130170E0E38E1A9108880E911CFAE08F16910420
S113018030F3CE0101965C0100E010E007C0F501F8
S113019081915F010E9461000F5F1F4FF601019082
S11301A00020E9F73197EC19FD090E171F0778F3C2
S11301B09401ADECBCEC0E944E018C0116950795A0
S11301C0169507951695079580E3800F0E946100A8
S11301D0C801880F991F000F111F000F111F000F76
S11301E0111F080F191FC401801B910B805D0E9411
S11301F0610080E20E9461008A9488BC2098F1E04A
S1130200F5B9F101108284E4F301808380E286BBB6
S1130210B59BFECFF201908180E286BB84E0F301BE
S11302208083B59BFECFF2019080991A80E286BB51
S11302305E01F9E1AF0EB11C00E010E007C0F5016A
S113024081915F010E9461000F5F1F4FF7010190D0
S11302500020E9F73197EE19FF090E171F0778F30D
S1130260FDEC9F9E112D112416951695169580E38D
S1130270810F0E946100110F812F880F880F180FC2
S1130280892D811B805D0E9461008EE20E946100C5
S113029080E20E946100812C912C6FCFA29FB0015B
S11302A0B39FC001A39F700D811D1124911DB29FA6
S11102B0700D811D1124911D0895F894FFCF47
S11302BE52656365697665642070756C7365206E2E
S11302CE756D6265723A20005769647468206F66B2
S11302DE207468652070756C73652069733A20000C
S9030000FC
