:100000000C9434000C943E000C943E000C943E0082
:100010000C943E000C943E000C943E000C943E0068
:100020000C943E000C943E000C943E000C943E0058
:100030000C943E000C943E000C943E000C943E0048
:100040000C943E000C943E000C943E000C943E0038
:100050000C943E000C943E000C943E000C943E0028
:100060000C943E000C943E0011241FBECFEFD8E04C
:10007000DEBFCDBF0E9452000C9460000C940000C3
:1000800088E18093C10086E08093C20087E6809378
:10009000C4000895E0ECF0E0908195FFFDCF8093DF
:1000A000C60008950E944000C0ECD0E006EC10E0CD
:1000B00088818823ECF7F80180810E944A00F8CFFC
:0400C000F894FFCFE2
:00000001FF
