S00D000074657374312E7372656326
S11300000C9434000C943E000C943E000C943E007E
S11300100C943E000C943E000C943E000C943E0064
S11300200C943E000C943E000C943E000C943E0054
S11300300C943E000C943E000C943E000C943E0044
S11300400C943E000C943E000C943E000C943E0034
S11300500C943E000C943E000C943E000C943E0024
S11300600C943E000C943E0011241FBECFEFD8E048
S1130070DEBFCDBF0E945C000C9467000C940000AE
S1130080109285001092840080E480938B0010927B
S11300908A0080E880938900109288001092800082
S11300A085E080938100B19BFECF82E086BB1092F5
S11300B081001092800008951FEFD5E5CAEA1AB9AD
S11300C0DBB90E944000CBB90E944000F8CFF894FD
S10500D0FFCF5C
S9030000FC
