:020000040800F2
:1000000000500020CD010008D1010008D3010008F4
:10001000E9010008EB0100080102000800000000EF
:1000200000000000000000000000000017020008AF
:1000300019020008000000001B0200086D050008FE
:1000400031020008310200083102000831020008C4
:1000500031020008310200083102000831020008B4
:1000600031020008310200083102000831020008A4
:100070003102000831020008310200083102000894
:100080003102000831020008310200083102000884
:100090003102000831020008310200083102000874
:1000A0003102000831020008310200083102000864
:1000B000310200087D070008310200083102000803
:1000C0003102000831020008310200083102000844
:1000D0001506000831020008C508000831020008B2
:1000E000310200083102000831020008000000005F
:1000F0000000000000000000000000000000000000
:1001000000000000000000005FF808F107B500F0F3
:10011000BDF8234A234B24498B4204D252F8041FD2
:1001200043F8041BF7E7214B214A934203D20022F4
:1001300043F8042BF8E700F0B5F8684601A900F091
:100140009DF81C4B1C4C1E46E41AA4100025A54229
:1001500004DA56F8253098470135F8E7174B184C64
:100160001E46E41AA4100025A54204DA56F82530EC
:1001700098470135F8E79DE8030000F037FA114B86
:1001800006461D46104CE41AA410002C04DD013C68
:1001900055F824309847F8E7304600F06BF800BF78
:1001A00060090008000000201C0000201C00002046
:1001B000840000205C0200085C0200085C02000869
:1001C0007402000874020008740200081448004712
:1001D000FEE71EF0040F0CBFEFF30880EFF3098079
:1001E0007146104A1047FEE7FEE71EF0040F0CBFF1
:1001F000EFF30880EFF3098071460B4A1047FEE7E2
:100200001EF0040F0CBFEFF30880EFF30980714676
:10021000064A1047FEE7FEE7FEE7FEE770470000EC
:100220000D010008E7010008FF01000815020008A1
:02023000FEE7E7
:1002340064090008000000201C0000206409000874
:1002440000000000000000001C00002084000020CA
:1002540000000000000000009104000805050008EB
:100264007D05000875060008010800080909000852
:1002740008B500F017F8000001230360014B0B6080
:10028400704700BF0000002008B500F01DF8024BC5
:10029400024A9A6008BD00BF00ED00E000000008BB
:1002A40000F08CB8BFF34F8F0549064BCA6802F4BF
:1002B400E0621343CB60BFF34F8F00BFFDE700BF85
:1002C40000ED00E00400FA05384B82B01A6842F0F1
:1002D40001021A605968364A0A405A601A6822F0C4
:1002E400847222F480321A601A6822F480221A601E
:1002F4005A6822F4FE025A604FF41F029A600022E8
:10030400009201921A6842F480321A601A6802F468
:1003140000320192009A01320092019A1AB9009AAD
:10032400B2F5A06FF2D11A6812F4003218BF01229C
:100334000192019A012A05D01E4B4FF000629A6087
:1003440002B070471C4A116841F010011160116835
:1003540021F003011160116841F0020111605A6833
:100364005A605A685A605A6842F480625A605A68FD
:1003740022F47C125A605A6842F4E8125A601A68ED
:1003840042F080721A601968084A8901FBD55168E5
:1003940021F003015160516841F0020151605A6833
:1003A40002F00C02082AFAD1C6E700BF001002408E
:1003B4000000FFF800ED00E000200240114A124B5B
:1003C400516801F00C01042901D0082901D00F491A
:1003D4000EE051685068C1F38341C00301F102018A
:1003E40002D55068800301D5094800E0074841431D
:1003F400196052680749C2F30312895C1A68CA403B
:100404001A607047001002401800002000127A00A1
:1004140000093D0008000020436813B3013B43601A
:1004240043BB154A0368926802F48072934221D058
:1004340083F480730360EBB1037A042B0ED8DFE8F6
:1004440003F0030509070B00012306E0032304E07E
:10045400022302E0042300E000230372007A00F088
:1004640055B9054B02689B6803F480739A421CBF1C
:1004740005234360704700BF000C014008B50248E3
:10048400FFF7CAFF08BD00BF20000020044B9A6894
:10049400044B02F480721A6000225A601A72704788
:1004A400000C01402000002003884268CB1A9BB254
:1004B40043EA0213436001800822002003F00F0185
:1004C400013A08444FEA1313F8D17047094B70B549
:1004D4000D46998C06464FF0804389B206489C8CA1
:1004E400FFF7E2FFA4B2306021460448FFF7DCFFC7
:1004F400286070BD000800402C000020340000205B
:10050400154A6721D36943F00503D361134B57227E
:100514001A811A8B92B242F001021A834FF0804280
:100524001181118B89B241F480711183FF21998566
:100534009185118889B241F0010111801A8892B223
:1005440042F001021A80064A002313805360054AD0
:1005540013805360704700BF001002400008004041
:100564002C00002034000020024A536801335360F9
:10057400FFF784BF3C000020154B4FF47A721B68D0
:10058400B3FBF2F3013BB3F1807F09D2114AF021AE
:100594005360114B83F823100023936007231360E7
:1005A4000E4A0021936943F0080393610C4B1A68C7
:1005B40022F070421A601A6842F000521A60094A26
:1005C40051604FF4FA711160916080221A61704792
:1005D4001800002010E000E000ED00E000100240F0
:1005E400000C01403C000020FEE70000074BDA68E5
:1005F40012F4805F14BF4FF080524FF480521A619E
:100604000022A3F554439A81704700BF000C0140B7
:100614000C490D4B888993F90120C0B218701AB1A6
:1006240000228A815A707047084BDB68DB0401D5CD
:10063400FFF7DCBF064B1022C3F8842040B200F061
:100644005BB900BF0038004048000020000C0140A6
:1006540000E100E008B5044B01225A70FFF7C6FF21
:10066400024B10225A6008BD4800002000E100E05F
:10067400124B9A6942F008029A61114A516821F4B6
:100684007F015160516841F422015160DA6942F4FA
:100694008042DA61A3F5EC339A8892B242F04002C8
:1006A4009A8040F23F321A801A8892B242F0400295
:1006B4001A80044B00225A701A70704700100240CE
:1006C400000C014048000020036910B544698A1AEF
:1006D4000C1B4161D1180B4B8B42A8BF0B460A4936
:1006E40003618B420368B8BF01615B4281685A436E
:1006F40003690B414168C06801FB132300FB1430FC
:1007040010BD00BF00943577006CCA88174B187071
:10071400042829D8DFE800F003080D121D00144B4B
:1007240000221A879A867047124A136943F00043DD
:1007340008E0104A136943F400430EE00D4A1369BC
:1007440043F400431361A2F50062136943F4803358
:1007540009E0084A136943F000431361A2F50062FB
:10076400136943F001031361704700BF7C0000204C
:1007740000040040001001401C4A13B5138A23F002
:1007840001031B041B0C1382FFF764FF684601A9D5
:10079400FFF79CFE164B1B782BB39DE80A00012241
:1007A40019441448FFF790FF009B01990446002266
:1007B4001148C91AFFF788FF221806D44AF6C773EE
:1007C4009342A8BF13469BB200E00023074A201AB5
:1007D400938606D44AF6C7739842A8BF184680B2D7
:1007E40000E00020108702B010BD00BF00040040EC
:1007F4007C0000204C000020640000202A4B4FF4B1
:10080400FA61052283E8060000221A61D9609A6021
:100814005A61264B0A201A619A605A6102F1804299
:1008240002F5043258601960D9609369204943F095
:10083400140393610B6823F07F4323F00F030B60D1
:100844000B6843F02A4343F002030B60194B5968C9
:1008540021F07F415960596841F008515960D369CA
:1008640043F00203D361144B03221A854AF6C7727C
:100874009A8546F668021A8311221A841A8892B25B
:1008840042F001021A801A8A22F001021204120CA8
:100894001A829A8992B242F001029A81074B4FF070
:1008A40000521A60704700BF4C0000206400002012
:1008B40000080140001001400004004000E100E095
:1008C4000A4B0B4A9B8813680133C82B01D0136071
:1008D400704700231360074BDA6812F0800F14BFCF
:1008E4004FF4000280221A61704700BF00440040A8
:1008F40080000020000C0140014B80B298807047BA
:1009040000440040114B9A6942F004029A61104A73
:10091400116821F470611160116841F42061116063
:10092400DA6942F40032DA610A4A4FF49C731381A3
:100934002C23938193899BB243F400539381064BF8
:1009440040225A60054B80221A6170470010024011
:10095400000801400044004000E100E0000C0140B8
:100964001C00002000000000000000000000000047
:0C097400010203040607080900A24A045F
:040000050800010DE1
:00000001FF
