S00D00004C616231472E7372656390
S11300000C9434000C9446000C9446000C94460066
S11300100C9446000C9446000C9446000C94460044
S11300200C9446000C9446000C9446000C94460034
S11300300C9446000C9446000C9446000C94460024
S11300400C9446000C9446000C9446000C94460014
S11300500C9446000C9475000C9446000C944600D5
S11300600C9446000C94460011241FBECFEFD8E038
S1130070DEBFCDBF21E0A0E0B1E001C01D92A430FD
S1130080B207E1F70E9472000C94E0000C940000A7
S113009083EA84BD9CE095BD97EA97BD8093800078
S11300A029E12093810027EA3BEE309389002093D5
S11300B088008093B0008EE08093B1009093B300E9
S11300C0229A8AB188628AB988EF87B9EAE7F0E0B0
S11300D08FE8808380EE80937C00789480818064B4
S11300E0808308950E944800FFCF1F920F920FB69D
S11300F00F9211242F938F939F93EF93FF938091EB
S1130100780080930301209179002093020180916B
S1130110000190910101009791F4223010F418BC71
S113012002C087EA88BDECE7F0E0808181608083CB
S113013081E090E0909301018093000132C081300E
S11301409105E1F4223028F410928B0010928A0079
S113015006C087EA9BEE90938B0080938A00ECE7BD
S1130160F0E080818E7F808380818260808382E062
S113017090E0909301018093000113C0029789F4E9
S1130180223018F41092B40003C087EA8093B400BC
S1130190ECE7F0E080818D7F808310920101109262
S11301A00001EAE7F0E0808180648083FF91EF91B1
S11301B09F918F912F910F900FBE0F901F901895C4
S10701C0F894FFCFDD
S9030000FC
