:100000000C9434000C9449000C9449000C94490061
:100010000C9449000C9449000C9449000C9449003C
:100020000C9449000C9449000C9449000C9449002C
:100030000C9449000C9449000C9449000C9449001C
:100040000C9449000C9449000C9449000C9449000C
:100050000C9449000C9449000C9449000C944900FC
:100060000C9449000C94490011241FBECFEFD8E036
:10007000DEBFCDBF11E0A0E0B1E0EAEEF1E002C0EA
:1000800005900D92A831B107D9F70E9471000C9428
:10009000F3000C94000088E18093C10086E0809317
:1000A000C20087E690E09093C5008093C40083E28D
:1000B00084BD8CE085BD87EA87BD18BC80E28AB923
:1000C0000895E0ECF0E0908195FFFDCF8093C600AD
:1000D0000895E0ECF0E080818823ECF78091C60081
:1000E0000895CF93DF93CDB7DEB768970FB6F89436
:1000F000DEBF0FBECDBF88E1E0E0F1E0DE0111968A
:1001000001900D928A95E1F70E944B00812C912C71
:10011000CE0101966C01082D192D0E94690090ED09
:10012000980F9A3078F49801220F331F000F111F97
:10013000000F111F000F111F020F131F080F111DB9
:10014000005311090A30110540F3FE0131965F0199
:10015000E12CF12C08C0F50181915F010E94610042
:10016000FFEFEF1AFF0AF60101900020E9F731973F
:10017000EC19FD09EE16FF0670F39801ADECBCEC2E
:100180000E94E4007C01F694E794F694E794F694D8
:10019000E79480E38E0D0E946100C701880F991FCC
:1001A000EE0CFF1CEE0CFF1CEE0CFF1CE80EF91E03
:1001B000C8018E199F09805D0E94610080E20E9443
:1001C0006100015008BDA7CFA29FB001B39FC0013D
:1001D000A39F700D811D1124911DB29F700D811D73
:0A01E0001124911D0895F894FFCF3B
:1001EA0052656365697665642070756C7365206E07
:0801FA00756D6265723A200088
:00000001FF
