:100000000C9434000C9449000C9449000C94490061
:100010000C9449000C9449000C9449000C9449003C
:100020000C9449000C9449000C9449000C9449002C
:100030000C9449000C9449000C9449000C9449001C
:100040000C9449000C9449000C9449000C9449000C
:100050000C9449000C9449000C9449000C944900FC
:100060000C9449000C94490011241FBECFEFD8E036
:10007000DEBFCDBF11E0A0E0B1E0E4E3F4E002C0F8
:1000800005900D92A831B107D9F70E9469000C9430
:1000900018020C94000088E18093C10086E08093F0
:1000A000C20087E690E09093C5008093C40083E28D
:1000B00084BD8CE085BD87EA87BD18BC80E28AB923
:1000C0000895E0ECF0E0908195FFFDCF8093C600AD
:1000D0000895CF93DF93CDB7DEB768970FB6F89446
:1000E000DEBF0FBECDBF88E1E0E0F1E0DE0111969A
:1000F00001900D928A95E1F70E944B0022242394EF
:100100006894662467F8712C0F2EF1E88F2E912CDD
:10011000F02D0F2EF4E43F2EF02D6894442445F882
:100120000F2EF6E8AF2EB12CF02DCE0101967C01FA
:10013000209825B8F3011082F401308246BAB59BAD
:10014000FECFF501808146BA94E0F4019083B59B1F
:10015000FECFF501608146BA681B70E080E090E058
:100160000E941F0121E73DE34AE45FE30E9483010F
:100170000E94EE00562ECE0101966C0100E010E0C8
:1001800007C0F60181916F010E9461000F5F1F4F50
:10019000F70101900020E9F73197EE19FF090E17DA
:1001A0001F0778F3FDEC5F9E112D1124169516950F
:1001B000169580E3810F0E946100110F812F880F37
:1001C000880F180F852D811B805D0E9461008EE2D3
:1001D0000E946100842D0E946100AACF0E946201EA
:1001E00088F09F5798F0B92F9927B751B0F0E1F0F8
:1001F000660F771F881F991F1AF0BA95C9F714C0A8
:10020000B13091F00E947C01B1E008950C947C0122
:10021000672F782F8827B85F39F0B93FCCF38695E0
:1002200077956795B395D9F73EF49095809570953D
:1002300061957F4F8F4F9F4F0895E89409C097FBBA
:100240003EF490958095709561957F4F8F4F9F4FAD
:100250009923A9F0F92F96E9BB279395F6958795F1
:1002600077956795B795F111F8CFFAF4BB0F11F4B4
:1002700060FF1BC06F5F7F4F8F4F9F4F16C088235B
:1002800011F096E911C0772321F09EE8872F762F91
:1002900005C0662371F096E8862F70E060E02AF0D2
:1002A0009A95660F771F881FDAF7880F96958795BE
:1002B00097F9089557FD9058440F551F59F05F3F27
:1002C00071F04795880F97FB991F61F09F3F79F078
:1002D00087950895121613061406551FF2CF4695FA
:1002E000F1DF08C0161617061806991FF1CF86957C
:1002F0007105610508940895E894BB276627772760
:10030000CB0197F908950E9496010C9407020E9470
:10031000F90138F00E94000220F0952311F00C94AE
:10032000F0010C94F60111240C947D010E945A01F5
:1003300070F3959FC1F3950F50E0551F629FF00138
:10034000729FBB27F00DB11D639FAA27F00DB11D51
:10035000AA1F649F6627B00DA11D661F829F2227DA
:10036000B00DA11D621F739FB00DA11D621F839F61
:10037000A00D611D221F749F3327A00D611D231F37
:10038000849F600D211D822F762F6A2F11249F5785
:1003900050409AF0F1F088234AF0EE0FFF1FBB1F88
:1003A000661F771F881F91505040A9F79E3F510547
:1003B00080F00C94F0010C947D015F3FE4F3983ED3
:1003C000D4F3869577956795B795F795E7959F5FF1
:1003D000C1F7FE2B880F911D9695879597F9089583
:1003E00097F99F6780E870E060E008959FEF80ECE8
:1003F000089500240A94161617061806090608958B
:1004000000240A9412161306140605060895092EF0
:100410000394000C11F4882352F0BB0F40F4BF2B5F
:1004200011F460FF04C06F5F7F4F8F4F9F4F08959F
:04043000F894FFCF6E
:100434005769647468206F66207468652070756CF1
:0804440073652069733A200082
:00000001FF
